:020000040800F2
:1000000000000220B9020008C1020008C502000871
:10001000DD020008E1020008F9020008000000000B
:1000200000000000000000000000000011030008B4
:100030001503000800000000190300081D03000854
:100040002D0300082D0300082D0300082D030008D0
:100050002D0300082D0300082D0300082D030008C0
:100060002D0300082D0300082D0300082D030008B0
:100070002D0300082D0300082D0300082D030008A0
:100080002D0300082D0300082D0300082D03000890
:100090002D0300082D0300082D0300082D03000880
:1000A0002D0300082D0300082D0300082D03000870
:1000B0002D0300082D0300082D0300082D03000860
:1000C0002D0300082D0300082D0300082D03000850
:1000D0002D0300082D0300082D0300082D03000840
:1000E0002D0300082D0300082D0300082D03000830
:1000F0002D0300082D0300082D0300082D03000820
:100100002D0300082D0300082D0300082D0300080F
:100110002D0300082D0300082D0300082D030008FF
:100120002D0300082D0300082D0300082D030008EF
:100130002D0300082D0300082D0300082D030008DF
:100140002D0300082D0300082D0300082D030008CF
:100150002D0300082D0300082D0300082D030008BF
:100160002D0300082D0300082D0300082D030008AF
:100170002D0300082D0300082D03000800000000D7
:100180002D0300082D03000800B583B000F034FEF5
:10019000384B394A1360394A136039490CE00A6810
:1001A0004B6801F10C04886803E01168196004339E
:1001B00004329842F9D82146324B9942EFD32E4B64
:1001C0001A68314B9A4204D12C4B1A682F4B9A4231
:1001D00000D0FEE7274B2E4A13602E4A13602E4BA9
:1001E0000AE0194651F8082B5B6802E00020106015
:1001F00004329A42FAD30B46284A9342F1D3244B55
:100200001B6813B9234B1B6803B1FEE700F0B6FE71
:1002100001A8694600F0E4FD214C224B1C1BA410F0
:10022000002504E01E4B53F8253098470135AC42B9
:10023000F8DC1D4C1D4B1C1BA410002504E01A4BC0
:1002400053F8253098470135AC42F8DC0198009905
:1002500000F09CFE0546164C164B1C1BA41004E037
:10026000013C134B53F824309847002CF8DC284607
:1002700000F0B0FDBABADECA000000202000002065
:100280003003000848030008785634123254769838
:100290002400002030000020480300085803000814
:1002A00058030008580300085803000858030008C2
:1002B000580300085803000808B5FFF765FF00BFA2
:1002C00000BEFEE71EF0040F0CBFEFF30880EFF353
:1002D00009807146124A104700BEFEE700BEFEE7E5
:1002E0001EF0040F0CBFEFF30880EFF30980714696
:1002F0000C4A104700BEFEE71EF0040F0CBFEFF3E0
:100300000880EFF309807146074A104700BEFEE7F8
:1003100000BEFEE700BEFEE700BEFEE7704700003D
:10032000D9020008F50200080D03000800BEFEE730
:100330000410000800000020240000200410000821
:1003400000000010000000102400002034000020F5
:08035000000000100000001085
:10035800704700BF10B5044600F01CFD064BA3FB18
:100368000030800900F08AF84FF0FF302146002263
:1003780000F042F8002010BDD34D621008B50B4BB9
:100388001A6842F400721A601A6842F480621A60AD
:100398001A6842F480721A60032000F00FF80F20E8
:1003A800FFF7D8FFFFF7D4FF002008BD003C02404C
:1003B800014B1868704700BF2800002010B504469C
:1003C800C31E042B03D90A48A42100F00DFD04F034
:1003D8000700084AD36823F4E0631B041B0C43EAB4
:1003E800002040F0BF6040F40030D06010BD00BF76
:1003F800900F000800ED00E070B504460E46154663
:100408000F2A03D91A48BC2100F0EEFC0F2E03D99D
:100418001748BD2100F0E8FC164BDB68C3F3022344
:10042800C3F10702042A28BF0422191D062901D98D
:10043800D81E00E00020012303FA02F2013A3240FC
:1004480002FA00F183405A1E2A400A43002C06DAB9
:1004580004F00F041201D2B2074B1A5570BD1201F5
:10046800D2B204F1604404F5614484F8002370BDFD
:10047800900F000800ED00E014ED00E00138B0F145
:10048800807F0AD2064B5860F021064A82F8231072
:100498000020986007221A6070470120704700BF4B
:1004A80010E000E000ED00E010B50446042805D097
:1004B80020B109484FF4C27100F096FC042C05D114
:1004C800064A136843F00403136010BD034A136817
:1004D80023F00403136010BD900F000810E000E043
:1004E80030B583B0044603680F2B04D9B24840F2F4
:1004F800171100F079FC236813F0010F5FD06368CF
:10050800012B06D9052B04D0AB484FF48E7100F0AF
:100518006BFCAA4B9B6803F00C03042B0AD0A74B77
:100528009B6803F00C03082B0DD1A44B5B6813F4F4
:10053800800F08D0A14B1B6813F4003F3FD06368BD
:10054800002B3CD1FBE100229D4B1A70FFF730FFD6
:10055800054607E0FFF72CFF401B41F2883398421D
:1005680000F2EF81954B1B6813F4003FF2D122791A
:10057800934B1A7063688BB1FFF71AFF054607E0C3
:10058800FFF716FF401B41F28833984200F2DB81E7
:100598008A4B1B6813F4003FF2D010E0FFF708FF06
:1005A800054607E0FFF704FF401B41F288339842F5
:1005B80000F2CB81814B1B6813F4003FF2D1236812
:1005C80013F0020F6DD0E368012B04D97A4840F28A
:1005D8005D1100F009FC23691F2B04D976484FF4FC
:1005E800AF7100F001FC754B9B6813F00C0F0AD03B
:1005F800724B9B6803F00C03082B1CD16F4B5B6894
:1006080013F4800F17D16D4B1B6813F0020F03D042
:10061800E368012B40F09B816848026822F0F801EA
:100628002269F82393FAA3F3B3FA83F3DBB29A406F
:100638000A43026035E0E3680BB30122614B1A609C
:10064800FFF7B6FE054605E0FFF7B2FE401B64283B
:1006580000F27F81594B1B6813F0020FF4D0574802
:10066800036823F0F8012269F82393FAA3F3B3FA95
:1006780083F3DBB29A4041EA0203036011E00022EF
:10068800504B1A60FFF794FE054605E0FFF790FE11
:10069800401B642800F25F81484B1B6813F0020F6F
:1006A800F4D1236813F0080F2ED06369012B04D905
:1006B80041484FF4CF7100F097FB636993B1012271
:1006C800414B1A60FFF774FE054605E0FFF770FE20
:1006D800401B642800F24181384B5B6F13F0020F16
:1006E800F4D011E00022384B1A60FFF761FE05468E
:1006F80005E0FFF75DFE401B642800F230812F4BB8
:100708005B6F13F0020FF4D1236813F0040F72D05B
:10071800A368012B06D9052B04D027484FF4E471B0
:1007280000F062FB254B1A6C42F080521A641B6C75
:1007380003F080530193019B244A136843F48073A8
:100748001360FFF735FE054605E0FFF731FE401B55
:10075800642800F206811D4B1B6813F4807FF4D0D7
:1007680000221B4B1A70FFF723FE054607E0FFF730
:100778001FFE401B41F28833984200F2F4800F4B71
:100788001B6F13F0020FF2D1227A114B1A70A36873
:1007980003B3FFF70DFE054607E0FFF709FE401B10
:1007A80041F28833984200F2E080044B1B6F13F04B
:1007B800020FF2D01FE000BFD40F0008003802403B
:1007C8000238024000004742800E47420070004055
:1007D80070380240FFF7ECFD054607E0FFF7E8FD3B
:1007E800401B41F28833984200F2C180664B1B6F70
:1007F80013F0020FF2D1A369022B04D963484FF416
:10080800037100F0F1FAA369002B00F0B2805E4A90
:10081800926802F00C02082A00F0AD80022B7BD10E
:10082800E3693BB1B3F5800F04D0584840F2152175
:1008380000F0DAFA236A3F2B04D9544840F2162113
:1008480000F0D2FA636AC03BF02B04D94F4840F25B
:10085800172100F0C9FAA36A022B0AD0042B08D08A
:10086800062B06D0082B04D048484FF4067100F038
:10087800BBFAE36A043B0B2B04D9444840F2192124
:1008880000F0B2FA0022424B1A60FFF791FD0546CC
:1008980004E0FFF78DFD401B64286ED83A4B1B68B7
:1008A80013F0007FF5D1E169236A1943626A47F6BC
:1008B800C07393FAA3F3B3FA83F3DBB29A401143FC
:1008C800A36A5B08013B4FF4403292FAA2F2B2FAF3
:1008D80082F2D2B293400B43E16A4FF0706292FA0F
:1008E800A2F2B2FA82F2D2B201FA02F21343264A13
:1008F80053600122264B1A60FFF75AFD044604E0B4
:10090800FFF756FD001B642839D81F4B1B6813F0EE
:10091800007FF5D0002035E000221D4B1A60FFF75C
:1009280047FD044604E0FFF743FD001B642828D870
:10093800154B1B6813F0007FF5D1002022E0012041
:1009480020E003201EE003201CE003201AE0012021
:1009580018E0032016E0032014E0032012E003202F
:1009680010E003200EE003200CE003200AE003203F
:1009780008E0002006E0012004E0032002E0032054
:1009880000E0032003B030BD00380240D40F000857
:100998006000474270B504460D460368013B0E2BC4
:1009A80004D995484FF41F7100F01EFA072D04D999
:1009B800914840F27D2100F017FA904B1B6803F034
:1009C8000F03AB4280F09880EAB28C4B1A701B6818
:1009D80003F00F03AB4240F06B81236813F0020F62
:1009E8001DD0A368A3B1802B12D0902B10D0A02BC0
:1009F8000ED0B02B0CD0C02B0AD0D02B08D0E02BB7
:100A080006D0F02B04D07C4840F2932100F0ECF99A
:100A18007B498B6823F0F002A36813438B6023683B
:100A280013F0010F00F002816368032B04D97248A8
:100A380040F29A2100F0D8F96268012A05D1704B7A
:100A48001B6813F4003F0FD134E1931E012B05D826
:100A58006B4B1B6813F0007F06D12DE1684B1B68B8
:100A680013F0020F00F02A8165498B6823F0030315
:100A780013438B60FFF79CFC05466368012B0FD17D
:100A880007E0FFF795FC401B41F28833984200F2DB
:100A980017815B4B9B6803F00C03042BF1D1C5E075
:100AA800022B0FD107E0FFF783FC401B41F288338C
:100AB800984200F20781524B9B6803F00C03082B05
:100AC800F1D1B3E0032B11D14D4B9B68FFF770FCBC
:100AD800401B41F288339842F6D9F5E0FFF768FCED
:100AE800401B41F28833984200F2F080444B9B68E7
:100AF80013F00C0FF2D199E0236813F0020F1DD008
:100B0800A368A3B1802B12D0902B10D0A02B0ED0AD
:100B1800B02B0CD0C02B0AD0D02B08D0E02B06D09D
:100B2800F02B04D0344840F2ED2100F05DF934494F
:100B38008B6823F0F002A36813438B60236813F0DB
:100B4800010F6BD06368032B04D92B484FF43D7118
:100B580000F04AF96268012A05D1294B1B6813F491
:100B6800003F0FD1B4E0931E012B05D8244B1B681E
:100B780013F0007F06D1ADE0214B1B6813F0020F84
:100B880000F0AA801E498B6823F0030313438B608F
:100B9800FFF70EFC06466368012B0FD107E0FFF74D
:100BA80007FC801B41F28833984200F29780144B6F
:100BB8009B6803F00C03042BF1D12FE0022B0FD11B
:100BC80007E0FFF7F5FB801B41F28833984200F2FB
:100BD80087800B4B9B6803F00C03082BF1D11DE0B9
:100BE800032B16D1064B9B68FFF7E2FB801B41F2F3
:100BF80088339842F6D975E0D40F0008003C0240CB
:100C080000380240FFF7D4FB801B41F2883398423A
:100C18006AD8374B9B6813F00C0FF3D1EAB2354B07
:100C28001A701B6803F00F03AB425FD1236813F0FF
:100C3800040F19D0E36883B1B3F5805F0DD0B3F525
:100C4800A05F0AD0B3F5C05F07D0B3F5E05F04D06A
:100C5800294840F24E3100F0C7F825498B6823F443
:100C6800E052E36813438B60236813F0080F1AD02F
:100C7800236983B1B3F5805F0DD0B3F5A05F0AD0C7
:100C8800B3F5C05F07D0B3F5E05F04D01A4840F26F
:100C9800553100F0A9F8164A936823F46043216996
:100CA80043EAC10393600F20FFF754FB002070BD97
:100CB800012070BD012070BD012070BD012070BDF4
:100CC800032070BD032070BD032070BD032070BDDC
:100CD800012070BD012070BD012070BD032070BDD2
:100CE800032070BD032070BD032070BD012070BDBE
:100CF80000380240003C0240D40F0008224B9B6899
:100D080003F00C03042B3DD0082B01D01F4870477B
:100D18001D4B586800F03F005B6813F4800F10D03B
:100D28001B4BB3FBF0F3184A506847F6C0721040EB
:100D380092FAA2F2B2FA82F2D2B2D04000FB03F3E6
:100D48000FE0124BB3FBF0F30F4A506847F6C0723E
:100D5800104092FAA2F2B2FA82F2D2B2D04000FB6C
:100D680003F3094A506800F440304FF4403292FAD5
:100D7800A2F2B2FA82F2D2B2D04001304000B3FB04
:100D8800F0F0704702487047003802400024F40031
:100D980000127A0008B5FFF7B1FF094B9B6803F012
:100DA800F002F02393FAA3F3B3FA83F3DBB222FA47
:100DB80003F3044AD35CD840034B186008BD00BF56
:100DC80000380240C40F00081C000020FEE700BFE6
:100DD80008B50120FFF7FAFF01230360014B0B6000
:100DE800704700BF0400002008B5FFF7F1FF00BFFF
:100DF80008B500F001F808BD0C4B1A6842F0010272
:100E08001A60002199601A6822F0847222F48032F4
:100E18001A60074A5A601A6822F480221A60D96058
:100E28004FF00062034B9A60704700BF00380240E1
:100E38001030002400ED00E0234B9B6803F00C0306
:100E4800042B07D0082B09D0002B2DD11F4A204B8B
:100E58001A602CE01F4A1E4B1A6028E01A4B5A6889
:100E68005B6803F03F0312F4800F09D0194AB2FB04
:100E7800F3F2154B5B68C3F3881303FB02F208E037
:100E8800124AB2FBF3F3104A5168C1F3881101FB0F
:100E980003F20D4B5B68C3F3014301335B00B2FB04
:100EA800F3F30B4A136002E0084A094B1A60064B39
:100EB8009B68C3F30313084AD25CD2B204490B6897
:100EC800D3400B60704700BF003802400024F40094
:100ED8001C00002000127A000C00002010B594B00D
:100EE800214B1A6C42F080521A641B6C03F0805339
:100EF8000193019B1D4B1A6842F480421A601B68DB
:100F080003F480430293029B0123089309934FF44F
:100F180080030F93082310934FF4A87311930224AE
:100F28001294072313930E9408A8FFF7D9FA0F23F6
:100F380003930494002305934FF4A05306934FF4AE
:100F48008053079303A80521FFF724FDFFF722FF2D
:100F5800074BA3FB00308009FFF790FA0420FFF746
:100F6800A3FA14B010BD00BF003802400070004062
:100F7800D34D621008B5FFF701FAFFF7AFFFFFF78F
:100F88005BFF08BDFEE700BF2E2E2F7379737465D3
:100F98006D2F7372632F73746D333266342D6861ED
:100FA8006C2F73746D3332663478785F68616C5F68
:100FB800636F727465782E63000000000000000003
:100FC8000102030401020304060708092E2E2F73E9
:100FD800797374656D2F7372632F73746D33326612
:100FE800342D68616C2F73746D3332663478785F92
:0C0FF80068616C5F7263632E6300000090
:10100400785634122C00002000000000000000007C
:101014000000000001020304060708090024F4008C
:041024003254769834
:040000050800018965
:00000001FF
